{
  "contractName": "Community",
  "abi": [
    {
      "inputs": [],
      "stateMutability": "nonpayable",
      "type": "constructor"
    },
    {
      "inputs": [
        {
          "internalType": "uint256",
          "name": "",
          "type": "uint256"
        }
      ],
      "name": "helpWallets",
      "outputs": [
        {
          "internalType": "address",
          "name": "",
          "type": "address"
        }
      ],
      "stateMutability": "view",
      "type": "function"
    },
    {
      "inputs": [
        {
          "internalType": "uint256",
          "name": "",
          "type": "uint256"
        }
      ],
      "name": "helperInstitutions",
      "outputs": [
        {
          "internalType": "address",
          "name": "",
          "type": "address"
        }
      ],
      "stateMutability": "view",
      "type": "function"
    },
    {
      "inputs": [],
      "name": "owner",
      "outputs": [
        {
          "internalType": "address",
          "name": "",
          "type": "address"
        }
      ],
      "stateMutability": "view",
      "type": "function"
    },
    {
      "inputs": [
        {
          "internalType": "address",
          "name": "",
          "type": "address"
        }
      ],
      "name": "personsInNeed",
      "outputs": [
        {
          "internalType": "bool",
          "name": "",
          "type": "bool"
        }
      ],
      "stateMutability": "view",
      "type": "function"
    },
    {
      "inputs": [
        {
          "internalType": "address",
          "name": "_personInNeed",
          "type": "address"
        }
      ],
      "name": "addPersonInNeed",
      "outputs": [],
      "stateMutability": "nonpayable",
      "type": "function"
    }
  ],
  "bytecode": "0x608060405234801561001057600080fd5b50336000806101000a81548173ffffffffffffffffffffffffffffffffffffffff021916908373ffffffffffffffffffffffffffffffffffffffff1602179055506104d3806100606000396000f3fe608060405234801561001057600080fd5b50600436106100575760003560e01c806361641ac51461005c5780638da5cb5b146100a0578063d00f9a92146100ea578063d2c1255914610158578063f143596a146101b4575b600080fd5b61009e6004803603602081101561007257600080fd5b81019080803573ffffffffffffffffffffffffffffffffffffffff169060200190929190505050610222565b005b6100a86103e0565b604051808273ffffffffffffffffffffffffffffffffffffffff1673ffffffffffffffffffffffffffffffffffffffff16815260200191505060405180910390f35b6101166004803603602081101561010057600080fd5b8101908080359060200190929190505050610405565b604051808273ffffffffffffffffffffffffffffffffffffffff1673ffffffffffffffffffffffffffffffffffffffff16815260200191505060405180910390f35b61019a6004803603602081101561016e57600080fd5b81019080803573ffffffffffffffffffffffffffffffffffffffff169060200190929190505050610441565b604051808215151515815260200191505060405180910390f35b6101e0600480360360208110156101ca57600080fd5b8101908080359060200190929190505050610461565b604051808273ffffffffffffffffffffffffffffffffffffffff1673ffffffffffffffffffffffffffffffffffffffff16815260200191505060405180910390f35b600073ffffffffffffffffffffffffffffffffffffffff168173ffffffffffffffffffffffffffffffffffffffff16141561025c57600080fd5b6000809054906101000a900473ffffffffffffffffffffffffffffffffffffffff1673ffffffffffffffffffffffffffffffffffffffff163373ffffffffffffffffffffffffffffffffffffffff16146102b557600080fd5b6001600260008373ffffffffffffffffffffffffffffffffffffffff1673ffffffffffffffffffffffffffffffffffffffff16815260200190815260200160002060006101000a81548160ff0219169083151502179055506911111111111111111111600160006101000a81548173ffffffffffffffffffffffffffffffffffffffff021916908373ffffffffffffffffffffffffffffffffffffffff1602179055506003600160009054906101000a900473ffffffffffffffffffffffffffffffffffffffff169080600181540180825580915050600190039060005260206000200160009091909190916101000a81548173ffffffffffffffffffffffffffffffffffffffff021916908373ffffffffffffffffffffffffffffffffffffffff16021790555050565b6000809054906101000a900473ffffffffffffffffffffffffffffffffffffffff1681565b6003818154811061041257fe5b906000526020600020016000915054906101000a900473ffffffffffffffffffffffffffffffffffffffff1681565b60026020528060005260406000206000915054906101000a900460ff1681565b6004818154811061046e57fe5b906000526020600020016000915054906101000a900473ffffffffffffffffffffffffffffffffffffffff168156fea264697066735822122059dccf28a9e80758ad9443e1c1ed82175491d517572c7a78d9ef9eb08feaacbf64736f6c63430006000033",
  "source": "// SPDX-License-Identifier: MIT\npragma solidity >=0.4.22 <0.8.0;\n\ncontract Community {\n/* \n    Contract to manage Machu Picchu community of persons in need\n    The model of Dec 2020 is HelperInstitutions > Community > Person-in-Need\n    The community would manage max 3000 P-InNeed\n    The HelperInstitution would manage 3000 communities\n    If a community manages private keys of P-InNeed, generation OTP for SMS, this reduces risks of hack\n*/\n    address public owner;\n    address helperInstitution;   // just a placeholder for the future, see comments below\n\n    mapping(address => bool) public personsInNeed;      // mapping registration status of a P-InNeed\n    // today we use bool to record registration status; will be IPFS hash of the record in the future\n\n    address[] public helperInstitutions;                // array of addresses of HelperInstitutions\n    address[] public helpWallets;    // each person in need has a wallet, to be further analysed\n    // this is equivalent to the Disguides of Pepito\n\n    constructor () public {         // constructor: msg.sender could be a HelperInstitution\n        owner = msg.sender;\n    }\n\n    function addPersonInNeed(address _personInNeed) public {   // To be defined. Inspired from Pepito\n        require(_personInNeed != address(0));\n        require(msg.sender == owner);\n        personsInNeed[_personInNeed] = true;    // today we use 'true'; will be IPFS hash in the future\n        helperInstitution = address(0x11111111111111111111);        // placeholder\n        // we have a design issue here: a Person-in-Need have a relation n-to-n with HelpeInstitution\n        // there will be a contract to associate a personInNeed with a helperInstitution\n        // a helperInstitution may help n persons in need\n        // a person in need may receive aid from n institutions but is always in contact with only 1 (NG)organisation\n        helperInstitutions.push(helperInstitution);\n        // do the same for helpWallets\n    }\n}\n",
  "sourcePath": "/Users/rajanpaulsarella/Documents/workspace/practice/ETHDenver/Machu-Picchu/Pepito/contracts/DraftCommunity.sol",
  "compiler": {
    "name": "solc",
    "version": "0.6.0+commit.26b70077.Emscripten.clang"
  },
  "schemaVersion": "3.3.3",
  "updatedAt": "2021-02-05T00:53:51.607Z",
  "devdoc": {
    "methods": {}
  },
  "userdoc": {
    "methods": {}
  }
}